:020000040001F9
:1080000088980010018201001F8201001D8201007A
:10801000218201002382010025820100000000006E
:1080200000000000000000000000000027820100A6
:1080300029820100000000002B8201002D82010036
:108040002F8201002F8201002F8201002F82010068
:108050002F8201002F8201002F8201002F82010058
:108060002F8201002F8201002F8201002F82010048
:108070002F8201002F8201002F8201002F82010038
:108080002F8201002F8201002F8201002F82010028
:108090002F8201002F8201002F8201002F82010018
:1080A0002F8201002F8201002F8201002F82010008
:1080B0002F8201002F8201002F8201002F820100F8
:1080C0002F8201002F8201002F8201002F820100E8
:1080D0002F8201002F8201002F8201002F820100D8
:1080E0002F8201002F8201002F8201002F820100C8
:1080F0002F8201002F8201002F8201002F820100B8
:108100002F8201002F8201002F8201002F820100A7
:108110002F8201002F8201002F8201002F82010097
:108120002F8201002F8201002F8201002F82010087
:108130002F8201002F8201002F8201002F82010077
:108140002F8201002F8201002F8201002F82010067
:108150002F8201002F8201002F8201002F82010057
:108160002F8201002F8201002F8201002F82010047
:108170002F8201002F8201002F8201002F82010037
:108180002F8201002F8201002F8201002F82010027
:1081900000000000000000000000000000000000DF
:1081A00000000000000000000000000000000000CF
:1081B00000000000000000000000000000000000BF
:1081C00000000000000000000000000000000000AF
:1081D000000000000000000000000000000000009F
:1081E000000000000000000000000000000000008F
:1081F000000000000000000000000000000000007F
:108200004EF68850CEF20000016841F47001016022
:10821000BFF34F8FBFF36F8F05480047FEE7FEE7C0
:10822000FEE7FEE7FEE7FEE7FEE7FEE7FEE7FEE726
:108230003582010000F002F800F06AF80AA090E828
:10824000000C82448344AAF10107DA4501D100F011
:108250005FF8AFF2090EBAE80F0013F0010F18BF74
:10826000FB1A43F001031847DC7B02000C7C020080
:108270000A444FF0000C10F8013B13F0070408BF4C
:1082800010F8014B1D1108BF10F8015B641E05D0EA
:1082900010F8016B641E01F8016BF9D113F0080F9F
:1082A0001EBF10F8014BAD1C0C1B09D16D1E58BF31
:1082B00001F801CBFAD505E014F8016B01F8016B68
:1082C0006D1EF9D59142D6D370470000103A24BFF5
:1082D00078C878C1FAD8520724BF30C830C144BF2B
:1082E00004680C607047000000230024002500266D
:1082F000103A28BF78C1FBD8520728BF30C148BF09
:108300000B6070471FB504F06AF91FBD10B510BDB2
:1083100000F0C6F81146FFF7F5FF03F0A7FE00F0E6
:10832000E4F803B4FFF7F2FF03BC00F0EBF8000041
:10833000EFF3108062B67047EFF3108072B67047AB
:1083400080F310887047000002480349014A034B3C
:1083500070470000886D001088980010886D00102C
:10836000B2F120030AD5C2F1200301FA02F120FA8A
:1083700003F300FA02F041EA0301704700FA03F147
:108380004FF000007047B2F120030AD5C2F120037C
:1083900020FA02F001FA03F321FA02F140EA0300A5
:1083A000704721FA03F04FF000017047032A40F2B2
:1083B000308010F0030C00F0158011F8013BBCF187
:1083C000020F624498BF11F801CB00F8013B38BF9F
:1083D00011F8013BA2F1040298BF00F801CB38BFAD
:1083E00000F8013B11F0030300F02580083AC0F0CB
:1083F000088051F8043B083A51F804CBA0E8081073
:10840000F5E7121D5CBF51F8043B40F8043BAFF3A5
:108410000080D20724BF11F8013B11F801CB48BFFF
:1084200011F8012B24BF00F8013B00F801CB48BF35
:1084300000F8012B704710B5203AC0F00B80B1E86E
:108440001850203AA0E81850B1E81850A0E8185089
:10845000BFF4F5AF5FEA027C24BFB1E81850A0E892
:10846000185044BF18C918C0BDE810405FEA827CAC
:1084700024BF51F8043B40F8043B08BF7047D207C3
:1084800028BF31F8023B48BF11F8012B28BF20F864
:10849000023B48BF00F8012B704770477047704798
:1084A000754600F02BF8AE4605006946534620F0AD
:1084B0000700854618B020B5FFF746FFBDE820400D
:1084C0004FF000064FF000074FF000084FF0000B90
:1084D00021F00701AC46ACE8C009ACE8C009ACE843
:1084E000C009ACE8C0098D46704710B50446AFF32B
:1084F00000802046BDE81040FFF713BF00487047DA
:10850000246D001001491820ABBEFEE726000200D2
:1085100070470A6802600B7903717047082828BF0A
:10852000704738B541EA80001E2828BF38BDDFE813
:1085300000F00FC7FDFD26D4FDFD3DE1FDFD54EE2D
:10854000FDFD6BFDFDFD82FCFDFD99FBFDFDB0FA1F
:108550008C4C21680091052001F068FD2168009194
:10856000072001F063FD21680091062001F05EFD07
:1085700021680091BDE83840482001F057BD814C8A
:1085800021680091082001F051FD216800910A2026
:1085900001F04CFD21680091092001F047FD2168A0
:1085A0000091BDE838400B2001F040BD754C2168BA
:1085B0000091192001F03AFD216800911B2001F083
:1085C00035FD216800911A2001F030FD21680091ED
:1085D000BDE83840252001F029BD6A4C2168009192
:1085E0001F2001F023FD21680091212001F01EFDD4
:1085F00021680091202001F019FD21680091BDE85B
:108600003840552001F012BD5E4C216800912220B7
:1086100001F00CFD21680091242001F007FD216884
:108620000091232001F002FD21680091BDE838404F
:108630002B2001F0FBBC534C216800912F2001F04E
:10864000F5FC21680091312001F0F0FC21680091D7
:10865000302001F0EBFC21680091BDE838403C205F
:1086600001F0E4BC474C216800913D2001F0DEFCA4
:10867000216800913F2001F0D9FC216800913E2043
:1086800001F0D4FC21680091BDE838401E2001F0C3
:10869000CDBC3C4C21680091162001F0C7FC21683C
:1086A0000091182001F0C2FC21680091172001F010
:1086B000BDFC21680091BDE83840582001F0B6BCEF
:1086C000304C21680091052001F0B0FC2168009138
:1086D000BDE83840062001F0A9BC2A4C2168009171
:1086E000082001F0A3FC21680091BDE83840092072
:1086F00001F09CBC234C21680091192001F096FCEC
:1087000021680091BDE838401A2001F08FBC1D4C53
:10871000216800911F2001F089FC21680091BDE8CB
:108720003840202003E01EE010E002E028E001F0E5
:108730007DBC144C216800912F2001F077FC21684A
:108740000091BDE83840302001F070BC0D4C21682C
:1087500000913D2001F06AFC21680091BDE838409D
:108760003E2001F063BC074C21680091162001F007
:108770005DFC21680091BDE83840172001F056BC2F
:1087800038BD000028F90300082828BF704708B545
:1087900041EA80001E2828BF08BDDFE800F00FDF97
:1087A000FDFD29EDFDFD43FCFDFD5DFBFDFD77FDC0
:1087B000FDFD91FAFDFDABF9FDFDC5F89C48016892
:1087C0000091052001F032FC9A48016800910720D1
:1087D00001F02CFC984801680091062001F026FC6D
:1087E000964801680091BDE80840482001F01EBC91
:1087F000934801680091082001F018FC9148016835
:1088000000910A2001F012FC8F48016800910920B4
:1088100001F00CFC8D4801680091BDE808400B2078
:1088200001F004BC8A4801680091192001F0FEFBA8
:108830008848016800911B2001F0F8FB8648016818
:1088400000911A2001F0F2FB844801680091BDE814
:108850000840252001F0EABB8148016800911F20F3
:1088600001F0E4FB7F4801680091212001F0DEFB6C
:108870007D4801680091202001F0D8FB7B48016809
:108880000091BDE80840552001F0D0BB7848016850
:108890000091222001F0CAFB764801680091242053
:1088A00001F0C4FB744801680091232001F0BEFB75
:1088B000724801680091BDE808402B2001F0B6BB6A
:1088C0006F48016800912F2001F0B0FB6D480168EE
:1088D0000091312001F0AAFB6B4801680091302023
:1088E00001F0A4FB694801680091BDE808403C2004
:1088F00001F09CBB6648016800913D2001F096FBA9
:108900006448016800913F2001F090FB62480168D3
:1089100000913E2001F08AFB604801680091BDE8AB
:1089200008401E2001F082BB5D48016800911620BE
:1089300001F07CFB5B4801680091182001F076FB98
:10894000594801680091172001F070FB57480168F1
:108950000091BDE80840582001F068BB5448016808
:108960000091052001F062FB524801680091BDE8CA
:108970000840062001F05ABB4F48016800910820CA
:1089800001F054FB4D4801680091092005E040E0EA
:1089900031E022E013E004E049E0BDE8084001F0E6
:1089A00045BB474801680091192001F03FFB45484D
:1089B00001680091BDE808401A2001F037BB424829
:1089C000016800911F2001F031FB404801680091CF
:1089D000BDE80840202001F029BB3D480168009116
:1089E0002F2001F023FB3B4801680091BDE80840BF
:1089F000302001F01BBB3848016800913D2001F098
:108A000015FB364801680091BDE808403E2001F0A2
:108A10000DBB334801680091162001F007FB314877
:108A200001680091BDE80840172001F0FFBA08BDB9
:108A30006C0000106400001068000010600000105E
:108A4000840000107C0000108000001078000010EE
:108A50009C0000109400001098000010900000107E
:108A6000B4000010AC000010B0000010A80000100E
:108A7000CC000010C4000010C8000010C00000109E
:108A8000DC000010D4000010D8000010D00000104E
:108A9000F4000010EC000010F0000010E8000010DE
:108AA0000C0100100401001008010010000100106A
:108AB0007000001074000010880000108C0000107E
:108AC000A0000010A4000010B8000010BC000010AE
:108AD000E0000010E4000010F8000010FC0000109E
:108AE0001001001014010010174800B5806883B011
:108AF00010F4801F10D01548006810F0010F0BD043
:108B0000684601F05BF9009810F0100F08D11021B1
:108B1000012001F09BF918B103B04FF0FF3000BD08
:108B20000B490120087002F091F80A4802F03CFD60
:108B30000948016801911C2001F078FA074802F009
:108B4000C3FD03B0002000BD001002407C0A0C40B1
:108B50005800001040420F001801001095AC0100B1
:108B600010B502F0B3FA0021084602F09BF9BDE807
:108B7000104002F00FBD00002DE9F04F04464348BD
:108B80008DB00026068242488A461746D0F8080271
:108B90003546C0F3C010002801BF156000200DB09D
:108BA000BDE8F08FA346207F01281EBF08200DB02E
:108BB000BDE8F08F9BF81D004FF0020800281EBF93
:108BC00040460DB0BDE8F08F4FF001098BF81D90C5
:108BD0004A460021DBF8180001F05CFEDBF81800C3
:108BE00001F0A0FD6068009004210020CDE9021092
:108BF000CDF810808DF81490DFF898808DF82090D3
:108C0000CDF80490CDF81C808DF8215009950A9577
:108C10006946A06901F034FA002818BF062624D15D
:108C200098F80000002804BF98F8011000291BD014
:108C30004FF00002CDF81CA0CDE90222019598F872
:108C400001108DF8205000EB01200490B0F5817FD9
:108C500088BF042608D838606946A06901F010FA78
:108C6000060018BF062600D03D60207F012808D1ED
:108C7000A06901F015FD01220221A06901F00AFEA0
:108C800065770DB03046BDE8F08F00001800001089
:108C900000000140280000102DE9FF4F04468DB070
:108CA0004F484FF0000ADDF868B0A0F810A094F823
:108CB00020008946554600281EBF032011B0BDE89C
:108CC000F08FA046207F01281EBF082011B0BDE80C
:108CD000F08F98F81D00022638BB012788F81D7018
:108CE0003A460021D8F8180001F0D4FDD8F8180051
:108CF00001F018FD80200021CDE9020101978DF8D7
:108D0000147004968DF820706068DFF8D8800090A9
:108D1000CDF81C808DF8215009950A956946A06907
:108D200001F0AEF928B106264CE011B03046BDE89E
:108D3000F08F98F80000682804BF98F80100A82870
:108D400027D04FF00306A06802F0A1FCBBF1000F92
:108D50001CD0254801680C912B2001F067F92349AC
:108D60004FF40060C1F82802214801680C912B20C3
:108D700001F05CF940F2A46002F089FCBAF5FA7FD8
:108D800018BF0AF1010AC9D107261BE084F8207038
:108D900018E0B9F1000F1CBF0197CDE9029503D18E
:108DA0000021CDE90211019510988DF8145004901E
:108DB0000F9806908DF820506946A06901F060F97F
:108DC0000600B0D1207F0128AFD1A06901F068FC76
:108DD00001220221A06901F05DFD6577A5E7000091
:108DE000180000102800001020F9030000000140C6
:108DF000C00000102DE9F8431E46DDF820808146B2
:108E0000002919BF002EB8F1000F0820BDE8F88333
:108E10004FF0010013460A4600904FF0000148460B
:108E2000FFF73AFF002818BFBDE8F8830024104D73
:108E3000D5F80802C0F3C010002808BF0D4F0FD1AD
:108E400004E0BC4202D10520BDE8F883012002F015
:108E50001EFCD5F80802641CC0F3C0110029F0D034
:108E6000424631464846BDE8F843FFF785BE00005C
:108E700000000140404B4C00002808BF704710B470
:108E800090E81C10084981E81C100068027EC37E2F
:108E900042EA0362837E407E1B0443EA00201043C3
:108EA000C86010BC012070478C2100102DE9FF4FD5
:108EB0008FB04FF0000B814CCDF808B0CDF80CB05E
:108EC000CDF810B08146CDF814B0CDF818B0CDF87B
:108ED0001CB0CDF820B0CDF824B0207F90460F46CE
:108EE0005D4618B113B00120BDE8F08FB9F1080F4D
:108EF000F8D8002FF6D001F08FF871480B900320BE
:108F00008DF828508DF8300078680E9038680D90F4
:108F10006946484601F094FC0028E3D1002211463E
:108F2000009801F0B7FC0028DCD10AA9009801F0F4
:108F30003DFA0028D6D1009801F0F4FB0028D1D1E9
:108F400000214846FFF720FC5E4E316801912A203F
:108F500001F06CF85C4801680191272001F066F887
:108F6000DFF868A1DAF808100191282001F05EF816
:108F700031680191612001F059F831680191622056
:108F800001F054F8524E0220C6F840020420C6F800
:108F90004002DAF8001001912E2001F047F8DAF8CB
:108FA000041001912D2001F041F80021084601F044
:108FB00089FE0021022001F085FE4FF4806AC6F888
:108FC00028A2142002F05EFBC6F838A2142002F09A
:108FD00059FBC6F828A24FF42F7002F053FB25610D
:108FE0006561657701202077A077E57702A884F88E
:108FF000205050F82900C4E900906420A060009936
:10900000A1611298DFF8C4900160C8F80040386888
:10901000304F03213D607D60BD603D61FD60C7E96B
:1090200006517D61C7E90940C9F80C5000F074F998
:10903000C9F80C0012E000BFD6F80802C0F3C01057
:1090400040B9322000F074FFD6F80802C0F3C01017
:109050000028F6D000F060F9C9F80C00B0F1A53F87
:1090600011D0B0F1A13FE7D1D8F8000000F0FEF830
:10907000C8F8005018A0D9F80C1002F00BFB386BA0
:1090800013B0BDE8F08FF86AB0F5877F06D20BEB1E
:10909000CB0204EB82024FF4967191600BEBCB0193
:1090A00004EB8101C8600A2002F0ECFA12A002F081
:1090B000F1FA13B00020BDE8F08F00009C210010F1
:1090C00000366E0120F9030024F903001800001097
:1090D00000000140C0210010424C4520436F6E74D7
:1090E000726F6C6C65722053424C204572726F72C5
:1090F00020307825780D0A00424C4520436F6E746D
:10910000726F6C6C657220496E697420446F6E6575
:109110000D0A00002DE9F0412B4C4FF480650F46FD
:109120000646C4F82852142002F0ACFAC4F83852AB
:10913000142002F0A7FAC4F828524FF42F7002F05E
:10914000A1FA224D39685EB1002028606860A860ED
:1091500028610322E860C5E906026861C5E9096182
:1091600000F0DAF80746B0F1A53F1CD0B7F1A13FF7
:109170000FD0D4F80802C0F3C0100028F0D132207C
:1091800000F0D6FED4F80802C0F3C0100028F6D0D4
:10919000E6E7304600F06AF839460DA002F07AFAA8
:1091A0003846BDE8F081E86AB0F5877F3CBF4FF4F0
:1091B0009671B160F0600A2002F064FA0CA002F02F
:1091C00069FA0020BDE8F08100000140C0210010D4
:1091D000424C4520436F6E74726F6C6C6572205305
:1091E000424C204572726F7220307825780D0A004B
:1091F00055706461746520446F6E650D0A0000004F
:10920000002808BF154907D0012808BF144903D01A
:10921000022808BF13491ED100291FBF0B68002B6D
:109220004A68002A17D08968814214D10E48C1616A
:10923000C0E90132A2F1400103F14002C0E903217B
:109240004A0AC9058261C90D1CBF511C81610021F8
:109250004161012070470020704700008C21001000
:109260002C0000103C000010C0210010F8B504468E
:109270000068082884BF0120F8BD0021012001F00A
:1092800021FD0021042001F01DFD00212068FFF7D1
:1092900045F91F4E4FF48060C6F838021D4D29680D
:1092A0000091272006F50E7600F0C0FE2968009197
:1092B000282000F0BBFE0220B0600420B0602968C6
:1092C0000091612000F0B2FE29680091622000F058
:1092D000ADFE296800912E2000F0A8FE29680091BB
:1092E0002D2000F0A3FEA06901F0DAF9012200218F
:1092F000A06901F0CFFA00220221A06901F0CAFAA8
:10930000A06901F05DFC0020207784F82000F8BD02
:109310000000014028F903002DE9F04F87B0002636
:10932000F94D059628462A68816ADFF8E08301270F
:10933000406A34464FF0040A4FF008094FF00C0B16
:10934000052A80F04A83DFE802F00317F1EFEE0010
:109350000446ADF80C60ADF80E90042102AA03A8F3
:1093600000F06EFC082302AA002120460097FFF7B8
:1093700093FC2F6000F0D4B80C4605AAFFF7FCFB65
:10938000E08802AA011F201D00F05AFC2168029803
:109390008142286A30D1002818BF2E62AC6A206949
:1093A0002863A068B0F1FF3F0CBFEE62E862D8A06E
:1093B00002F070F9A068010C37D0C1B20091C0F37F
:1093C0000723C0F30742010ED7A002F063F9059806
:1093D000202818BF6E632FD02069DA4E00283AD0BB
:1093E000072873D0082800F07C80092818BFD6A071
:1093F00000F0828000F0E6B8401C2862032800F2EA
:10940000B6826C6AADF80C60ADF80E90042102AA29
:1094100003A800F015FC082302AA002120460097AB
:10942000FFF73AFC444600F073B8C2B2C0F3032120
:10943000CDA002F02FF9CAE760696863D0A0A169E6
:1094400002F028F9D3A0E16902F024F9A069A86329
:10945000E069E863C0E70020FFF7D2FEC8B1D34857
:10946000A168C068814214D23446010C0AD0C1B24E
:109470000091C0F30723C0F30742010ECC4802F06D
:1094800009F945E0C2B2C0F30321CA4802F002F96B
:109490003EE04446C8A0C5F800A002F0FBF86E6AA2
:1094A000ADF80CA0ADF80EB0082102AA03A800F098
:1094B000C7FB0C2302AA002130460097FFF7ECFB04
:1094C00000E003E0C3A002F0E5F821E0CEA002F046
:1094D000E1F80020FFF794FE002818BF344617D1AA
:1094E00014E0D0A002F0D6F80120FFF789FE002892
:1094F00018BFD44C0CD109E0D3A002F0CBF8022065
:10950000FFF77EFE002818BFD74C01D14FF0A334DF
:10951000286804281CBF0220286000F05E8228E032
:10952000444600F05ABA3FE285E0FFE70C4605AA40
:10953000FFF722FBE08801AA011F201D00F080FB3D
:10954000206801998842286A0DD1002818BF2E6230
:10955000AB6A03249888072810D0052804BFD86870
:10956000092833D02DE000F101002862032800F221
:10957000FE81A968686A02F0A1FED1E7696801B3BB
:10958000D8682C6028636E6A68691C46A3F804904A
:109590004C23E380A060402204F10C00FEF706FF9C
:1095A000E0882246011F201D00F04AFB4C23224682
:1095B000002130460097FFF76FFBACA002F06AF87D
:1095C000AEE7B6A002F066F800F0D1B9B8A002F09C
:1095D00061F84FF4966002F055F8DFF814A34FF4E9
:1095E000806BCAF828B2142002F04CF8CAF838B2DE
:1095F000142002F047F8CAF828B24FF42F7002F096
:1096000041F86E60AE602E61EE60C5E906646E6181
:109610006C6AADF80C60ADF80E90042102AA03A8A4
:1096200000F00EFB082302AA002120460097FFF756
:1096300033FB2F6074E70C4605AAFFF79DFAE0881C
:1096400002AA011F201D00F0FBFA2068029988423F
:10965000286A0BD1002818BF2E62AB6AD96829632B
:109660009868082818BF02284CD080E100F101005A
:109670002862032847D86B6913B1A869D8B11EE0E6
:10968000D5E909646968A4F804904C20E080402280
:1096900004F10C00A360FEF789FEE0882246011F5A
:1096A000201D00F0CDFA4C232246002130460097C1
:1096B000FFF7F2FA34E7288AC405E40D01D14FF42C
:1096C0000074E8688B49D5E9096501EB4321014441
:1096D000A5F8049004F10C00E880224605F10C0086
:1096E000AB60FEF763FEE8882A46011F281D00F0E4
:1096F000A7FA04F10C032A46002130460097FFF731
:10970000CBFA0DE7F8E032E1C02100102CD38BA793
:10971000424C4520436F6E74726F6C6C65722049C9
:109720006E666F3A0A000000094657205665723A85
:1097300020202020202025642E25642E25642E251F
:10974000640A000031F29845424C4520436F6E7424
:10975000726F6C6C65722057726F6E672052657302
:10976000706F6E73650A0000094657205665723A9D
:1097700020202020202025642E25640A00000000DF
:109780000943686970204944303A2020202030780D
:1097900025780A000943686970204944313A20203D
:1097A0002020307825780A0A000000008C21001063
:1097B000FCFD0300B8FD03004E6F206E6577206945
:1097C0006D61676520746F20757067726164650AEA
:1097D00000000000424C4520436F6E74726F6C6C49
:1097E0006572204657204175746820506173736517
:1097F000642C20436F6E74696E7565207769746898
:109800002046570A00000000424C4520436F6E740A
:10981000726F6C6C65722052657175697265732028
:1098200046570A00424C4520436F6E74726F6C6C51
:10983000657220526571756972657320494E464F95
:1098400020300A005BDA3087424C4520436F6E744B
:10985000726F6C6C657220526571756972657320E8
:10986000494E464F20310A002537FA09424C45201F
:10987000636F6E74726F6C6C657220757067726165
:10988000646520696E2070726F67726573732C2037
:10989000776169742E2E2E0A0000000055706461F5
:1098A0007465204661696C6564202121210A0000ED
:1098B000436C65617220436F6F70657220536967F6
:1098C0006E61747572652C20726573657420436FC8
:1098D0006F70657220616E642074616C6B207769B3
:1098E00074682053424C20616761696E0A00000071
:1098F0000000014000FEFFFF002918BF0B2933D1F3
:10990000A86978B3012803D1288AC605F60D01D1CC
:109910004FF40076E9686869D5F824A0A3F80490AC
:1099200006F10C0201EB4021DA80401C98601C46D5
:10993000324603F10C00FEF739FDE0882246011F94
:10994000201D00F07DF906F10C032246002150464F
:109950000097FFF7A1F9A869401EA8616869401C3B
:109960006861DDE5FFE729B129A001F093FE4FF022
:10997000A13432E0E86970BB2C48C5F800A0444629
:10998000C068E8626D6AADF80CA0ADF80EB00821B1
:1099900002AA03A800F054F90C2302AA00212846C9
:1099A0000097FFF779F918E00C4605AAFFF7E4F8ED
:1099B000E08801AA011F201D00F042F920680199EA
:1099C0008842286A0DD1002818BF2E62A86AC06894
:1099D00028630028CBD14FF0A53407B02046BDE85E
:1099E000F08F401C28620328F0D86C6AADF808A0FC
:1099F000ADF80AB0082101AA02A800F021F90C2351
:109A000001AA002120460097FFF746F9DEE7000093
:109A1000557064617465206661696C73207374614C
:109A2000747573203D20307825780A008C21001051
:109A300000281CBF016811F0807F04D00B4B21F07F
:109A40007F429A4201D00220704711F0007F04BF8C
:109A500000207047416A09680A6822F001020A6022
:109A6000016821F00071016000207047CDCDCD006C
:109A700010B5041E1CBF206810F0807F04D0104A6F
:109A800020F07F41914201D0022010BD10F0007FF4
:109A90001CBF002010BD0B49A068884203D30021E1
:109AA000012000F04BF9606A0068016841F0010193
:109AB0000160206840F000702060002010BD0000B0
:109AC000CDCDCD00000006100B2824BF0520704727
:109AD00000291EBF4B68002B002A04D0D1F800C01B
:109AE000BCF1020F01D20620704730B400EB4003F6
:109AF0002E4C03EBC00354F8235015F0807F1EBF9B
:109B0000072030BC704704EB83034FEACC0CC3F84A
:109B100018C0D1F804C0C3F804C0C3F80CC0C3F81F
:109B200014C0C3F810C0D1E9004C0CEBC40CC3F84E
:109B300008C0D3F800C01E4C2CF0007C4CF0807C98
:109B400064F3170CC3F800C0DFF868C000EB8000B6
:109B50000CEBC00058620020D8611862D3F824C012
:109B6000DCF808C0CCF80000D3F824C0DCF80CC046
:109B7000CCF80000586AD0F810C0DCF8004040690A
:109B80002043CCF80000D3F824C04868DCF804C0B7
:109B9000CCF80000087A022101EA4000596A0968FD
:109BA0000860136030BC002070470000406B00105C
:109BB000CDCDCD006CF9030038B50D46041E1CBF99
:109BC000206810F0807F04D01C4920F07F4088423C
:109BD00001D0022038BDFEF7AFFB0090606A8068BC
:109BE0000068216AC0B221F0FF010843E061216AE8
:109BF000091A44BFA0F58070E061606A406800689F
:109C0000E0600098FEF79CFB2DB9D4E9070188427B
:109C10001CBF032038BD206820F080702060606A7F
:109C20000068016821F001010160606A01690A6849
:109C3000406922EA00000860002038BDCDCDCD008B
:109C4000002A04BF0620704770B5154611F0030FB7
:109C50001CBF062070BD4FF0FF320F4C2263206105
:109C60002162226822F0F002226008440B498842F7
:109C700003D30021012000F061F82068214640F064
:109C80000100206000230122054800F067F9002848
:109C900004BF216B296070BD000003400000061066
:109CA000A086010070B582B00546FEF745FB009026
:109CB000FEF742FB4FF090440190206D1D4E10F0D6
:109CC000040F0BD1BFF34F8F606D40F00100606552
:109CD0003068606D40F0020060653068606D10F0C3
:109CE000040FFBD00198FEF72BFB002D04BF0620CC
:109CF000206518D028796978022200F0010002EA74
:109D000041010843E9784FF4706202EA01210843F7
:109D1000A9784FF4F81202EA014108432065294668
:109D20000548FEF7F6FB30680098FEF709FB02B025
:109D3000002070BD0000FF472401001038B51D4D04
:109D40004FF0904448B301280CD0022808BF0020EF
:109D500004D0032816BF0620174838BDFFF7A2FF1E
:109D6000002038BDFEF7E8FA0090206D10F0040FD7
:109D70000BD1BFF34F8F606D40F001006065286824
:109D8000606D40F0020060652868606D10F0040F9F
:109D9000FBD00098FEF7D4FAE2E7206D10F0040F34
:109DA000DED1BFF34F8F606D40F002006065286820
:109DB000D6E700000000FF47240100102DE9F04322
:109DC00080461F4883B0806810F4801F23D01D4850
:109DD000006810F0010F1ED0DFF86C906846022278
:109DE000D9F8041002F032F8DDE90001002427461A
:109DF00005262546D9F80020FEF7C5FA14224FF0B3
:109E0000010C00BF00F00703734084EA040953EA21
:109E1000090309D103E003B00720BDE8F083C2F1D4
:109E200014030CFA03F31D43C00840EA4170C9084B
:109E3000521EE7D1C8F8005003B03846BDE8F083A1
:109E4000001002407C0A0C40300100102DE9F04F58
:109E50008146344885B0806810F4801F2AD0DFF82E
:109E6000C8A0DAF8000010F0010F23D0DFF8BC80A2
:109E700000274D08D8F800B03E46142415F0010F15
:109E800006D05A4607200021FEF76AFA07430E4320
:109E90006D08641E0BF1030B002CEFDC022202A8FC
:109EA000D8F8081001F0D2FFDDE902103940304047
:109EB000084303D005B00720BDE8F08F02226846B2
:109EC000D8F8041001F0C2FFB9F1000F0DD0DDE9A0
:109ED000001021EA0702D8E904313B40B043314089
:109EE0001A430843CDE900200CE0DDE9000121EA36
:109EF0000602D8E90631B8433B40314018431143CC
:109F0000CDE9000102226946D8F8040001F09EFF65
:109F1000DAF8000010F0010FFAD005B00020BDE81B
:109F2000F08F0000001002407C0A0C40300100104D
:109F3000084940010968C1F3C101022906BF400078
:109F400015210F21884298BF7047401A0249496A7B
:109F500008470000001002403CF903002DE9F047DB
:109F6000DFF84880DFF848901D4616460F46044645
:109F700038683040A84202D10020BDE8F087641E56
:109F800011D3D8F800102020C1F3C101022906BF67
:109F900040204FF0150C4FF00F0CA0EB0C00D9F83F
:109FA00024108847E4E70420BDE8F0870010024051
:109FB0003CF903002DE9F047DFF85490DFF854A096
:109FC000DDF820801C4615460E4607463068B8F17D
:109FD000000F00EA050002D0A04202D004E0A04237
:109FE00002D00020BDE8F0877F1E0ED3D9F8001004
:109FF0002020C1F3C101022906BF402015210F21F5
:10A00000401ADAF824108847E0E70420BDE8F0871A
:10A01000001002403CF903004FF0904050F8901FB0
:10A0200041F00101016000207047000003B41249B3
:10A03000802822BF052002B07047019AC2F3812216
:10A04000012A0ED90D4B42094FF0010C53F8222082
:10A0500000F01F030CFA03F31A4202BF072002B0FC
:10A0600070477322C1F80022019A41F82020002095
:10A07000C1F8000202B07047000001402CF9030053
:10A080002DE9F04F87B00C46B0F100084FF0000703
:10A090001CBFD8F8000010F0807F04D0BD4920F02C
:10A0A0007F40884203D007B00220BDE8F08F002C2B
:10A0B00002BF062007B0BDE8F08F207D01287CD8C4
:10A0C000D4F81090B9F1000F04BF002020750122D0
:10A0D0002146404602F0BAF900281CBF07B0BDE88F
:10A0E000F08F98F82C08022867D0D4E902B0D8F88D
:10A0F000045004906068029094F8200094F814A032
:10A10000002818BF01200190BAF1000F0CBFA6690A
:10A11000E6690120009000235A1E08F12401D8F8B6
:10A120006008FFF747FF00281CBF07B0BDE8F08FAD
:10A13000012000909848042300EB0531039106228A
:10A14000D8F86008FFF736FF00281CBF07B0BDE84D
:10A15000F08F280300F1804505F5A025D5F8000211
:10A1600005900020C5F80002D5F8180220F0010083
:10A17000C5F818024FF0FF30C5F808022068C5F88E
:10A18000C40298F80800002811BF0020206808F5D4
:10A190000A61405CC5F8240198F8080000280CBF4B
:10A1A000206800204FF4401303EA00507B4B03EA81
:10A1B00009231843DFF8E89100E04FE0DDE90121D1
:10A1C000BAF1010F0CBF40F0020040F001004FF067
:10A1D000800303EAC21242EA00004FF0700240EA34
:10A1E0000B6002EA011141EA000004994FEA1B22C8
:10A1F00042EA0161C5F82811246908D0BAF1000FBC
:10A2000004BFD5F80011C1F307215AD08DE0C5F87D
:10A210002001002C47D000BFD5F80001C0F3074350
:10A22000042B38BF4FF0010A3BD2002F18BF9C42CD
:10A2300011D80120FFF77CFED5F8040200F00107D9
:10A24000D5F80001C0F30743042B2AD250460AF187
:10A25000010A4845E9D3042B67D322E007B0072061
:10A26000BDE8F08FD5F808111B1F042C03D346F866
:10A27000041B241F13E0012CD8BF0124721E14F00C
:10A28000010F02D002F8011F090A601006D05170B8
:10A29000090A02F8021F090A401EF8D10024042B03
:10A2A00002D3002CDED140E0002CB5D13DE000BF50
:10A2B00056F8042BC5F80C21091F042C2CBF241FB1
:10A2C0000024042904D3002CF2D1C5F820012CE08D
:10A2D000C5F820014CB3D5F800010027C0F30720D2
:10A2E000042814D2D5F8041211F0010F1DD13946FB
:10A2F0007F1C494509D20120FFF71AFED5F800015D
:10A30000C0F307200428EDD301E004280DD364B185
:10A3100056F8041BC5F80C11001F042C2CBF241F79
:10A3200000240428F3D2002CD5D10120009004236E
:10A33000062248460399FFF73DFE060011D000BFF4
:10A34000D5F80412404601F0EDFD00BF4FF0FF309C
:10A35000C5F808020598C5F8000207B03046BDE808
:10A36000F08FD5F8040210F06C0F18BF4FF00066A4
:10A37000E6D110F4007F18BF0A4EE1D110F0100FA3
:10A3800018BF094EDCD110F4904F0CBF002C0126F1
:10A39000D6D1DBE75634120048020540FFFF0F001C
:10A3A00020A1070001000008020000082DE9F04F7D
:10A3B000021E1CBF136813F0807F05D0DFF8A4C213
:10A3C00023F07F40604502D00220BDE8F08F0029D5
:10A3D0001CBF506808282ED213F0007F1CBF072036
:10A3E000BDE8F08F0B78000300F18046137206F58C
:10A3F000A02641F21003C6F804310878F0B1012814
:10A400001CBF0520BDE8F08F4868A0F5D460B0F50A
:10A41000C03004BF944B954800F0D680A0F59F5003
:10A42000B0F5902004BF924B92487CD0A0F51F500D
:10A43000B0F5102F78D00620BDE8F08F0F7A032FEB
:10A44000F9D88D484B688342F5D8C7F34009002BF3
:10A450006BD04000B0FBF3FCB0FBF3F403FB140043
:10A46000002818BF01200CEB000460422040B0FA25
:10A4700080F0C0F11F0CBCF1060F00F3EF8000BFAD
:10A4800041F2E360834209D3A3F1F4707B4DA0F560
:10A490009040854238BF4FF0000A01D34FF0010AC7
:10A4A000012000EB4A0808FA0CF0B4FBF0F5B4FB0D
:10A4B000F0FB00FB1B40002818BF01202844B0FA25
:10A4C00080F5C5F11F05072D84BFAC44ACF1070C26
:10A4D0000CF1010CBCF1070F88BF00236FD8072DCA
:10A4E0000ED9ED1F20FA05FB4FF0010E0EFA05F50F
:10A4F000B0FBF5FE05FB1E00002818BF01205844E4
:10A500005F4DAB4207D2ACF101050123AB40A34242
:10A5100018BF012400D10024B9F1000F14BF831E1D
:10A52000431E5B0802E04FE051E048E04FF4E06575
:10A5300005EA0C294FF4006505EACA254FF4805A54
:10A5400049EA05050AEA043A45EA0A054FF47F0A92
:10A550000AEA03432B434FF07F4505EB0065ACF15E
:10A56000010C08FA0CF8401E2B436043454D401C7B
:10A5700008FB00F0B5FBF0F8B5FBF0F400FB185851
:10A58000B8EB500F8CBF0120002004443E48B4FBC0
:10A59000F0F800FB1848B8F1000F10D1B4FBF0F050
:10A5A00068B1A0F1010810EA080F08D1032000FAF1
:10A5B0000CF0B5FBF0F3B5FBF0FC49F4006307F0D9
:10A5C0000300C6F8800206E0C6F8C00203E02F4B85
:10A5D0002F48C6F8C00243F00100C6F818012D4B01
:10A5E0004868B3FBF0F0C2F864084FF47A70C2F820
:10A5F0006008C868D0600969116148B300EB810048
:10A60000254988422CBF0020012082F8A408002898
:10A6100018BF10690DD1D168136901F10F0020F046
:10A620000F0001F00F01C1EB8301D0600809800029
:10A630001061800019492038A1FB00108009C2F880
:10A640005808B0F5807F88BF4FF48070C2F8580872
:10A650000020C2F8A008BDE8F08F00BF4FF0060C44
:10A660000EE700005634120001133B7770F0030030
:10A6700001130E1D70F20300006CDC02FF23F400D6
:10A6800000366E0100D8B80590D003000113050B09
:10A690004030020040420F0000000610ABAAAAAAF8
:10A6A00070B5041E1CBF016811F0807F04D01C4BE4
:10A6B00021F07F429A4201D0022070BD11F0007F4C
:10A6C00004BF002070BD616A00291CBF032070BD5B
:10A6D0006168090301F1804101F5A021D1F81C2135
:10A6E00022F00102C1F81C216168090301F18041D7
:10A6F00001F5A021D1F81C2122F01002C1F81C2183
:10A70000D4F82808254628B10121FFF755FA002082
:10A71000C5F82808206820F000702060002070BD77
:10A720005634120030B583B0041E4FF000011CBF38
:10A73000206810F0807F04D03F4B20F07F429A4287
:10A7400002D003B0022030BD10F0007F1EBF0020F9
:10A7500003B030BD227A6068002A14BF4FF0010CAC
:10A760004FF0000C000300F1804303F5A023D3F861
:10A770001C010122C0F342050020654508BFC3F853
:10A780001C210DD0D3F81C51C5F34215654507BFF8
:10A790004FF0100CC3F81CC1092003B018BF30BD26
:10A7A000E368002B40D06062E061636823491B03CB
:10A7B00003F1804303F5A023C3F83812C4F854080A
:10A7C00084F83C08C4F83808C4F84408C4F84008C1
:10A7D00084F82C08C4F8300884F82D28D4E9031331
:10A7E00094F804C0C4F828082062C4F85C0858082B
:10A7F000CDE900018DF808200CF0FF0004F62802D6
:10A800006946FFF761F9011E04BF4FF480722262AE
:10A810004FF0020062684FEA023202F1804202F514
:10A82000A022C2F8100203D1206840F0007020601E
:10A8300003B0084630BD00005634120040008000CE
:10A84000082824BF05207047002904BF0620704750
:10A8500010B440F2151200FB02F30C4A52F833C058
:10A860001CF0807F1EBF072010BC70472CF0007CBE
:10A870004CF0807C064C64F3170C42F833C002EBBA
:10A88000C30250600A6010BC002070470026001010
:10A890005634120070B51546041E1CBF206810F017
:10A8A000807F04D0C44B20F07F429A4201D0022026
:10A8B00070BD00297DD001291EBF0229062070BD70
:10A8C00010F0007F10D060684FEA003000F1804047
:10A8D00000F5A020D0F8480200F00600042807BFC9
:10A8E000606A0028032070BD002D7CD060680003E2
:10A8F00000F1804000F5A020D0F80401C4F86C08F5
:10A900006068000300F1804000F5A020D0F8180135
:10A91000C4F874086068000300F1804000F5A020CE
:10A92000D0F81C01C4F878086068000300F180408A
:10A9300000F5A020D0F82802C4F87C086068000365
:10A9400000F1804000F5A020D0F82C02C4F8800867
:10A950006068000300F1804000F5A020D0F83402C8
:10A96000C4F884086068000300F1804000F5A0206E
:10A97000D0F83C02C4F888086068000300F1804009
:10A9800000F5A020D0F84002C4F88C0860680003ED
:10A9900000F1804000F5A020D0F84402C4F89008EF
:10A9A0006068000300F1804000F5A020D0F880022C
:10A9B00000E052E0C4F894086068000300F18040B1
:10A9C00000F5A020D0F8C002C4F898086068000321
:10A9D00000F1804000F5A020D0F80002C4F89C08E7
:10A9E0006068000300E019E000F1804000F5A0205D
:10A9F000D0F81002C4F870086068000300F18040CD
:10AA000000F5A020D0F8280210F0010F1CBFD4F8E8
:10AA10002808FFF70DF8012084F868086068000333
:10AA200000F1804000F5A020D0F81C1121F00101B8
:10AA3000C0F81C116068000300F1804000F5A02000
:10AA4000D0F81C1121F01001C0F81C112079401C15
:10AA5000C0B200F05BFC002070BD2DB194F8680816
:10AA6000002804BF072070BD2079401CC0B200F050
:10AA7000E3FC002DEFD06168D4F86C08090301F104
:10AA8000804101F5A021C1F804016168D4F874087F
:10AA9000090301F1804101F5A021C1F818016168A5
:10AAA000D4F88008090301F1804101F5A021C1F823
:10AAB0002C026168D4F88408090301F1804101F592
:10AAC000A021C1F834026168D4F88808090301F1B3
:10AAD000804101F5A021C1F83C026168D4F88C08DE
:10AAE000090301F1804101F5A021C1F8400261682C
:10AAF000D4F89008090301F1804101F5A021C1F8C3
:10AB000044026168D4F89408090301F1804101F519
:10AB1000A021C1F880026168D4F89808090301F106
:10AB2000804101F5A021C1F8C0026168D4F89C08F9
:10AB3000090301F1804101F5A021C1F8000261681B
:10AB4000D4F87008090301F1804101F5A021C1F892
:10AB500010026168D4F87C08090301F1804101F515
:10AB6000A02120F00100C1F828026168D4F878081B
:10AB7000090301F1804101F5A021C1F81C0194F8FD
:10AB80007C0810F0010F12D0606A60B96168080398
:10AB900000F1804000F5A020D0F82C02074A02EB1B
:10ABA0000131C0E90010D4F82808FEF761FF002049
:10ABB00084F868084FE70000563412002C02054064
:10ABC0002DE9F0410027061E1CBF016811F0807FAF
:10ABD00004D01D4B21F07F429A4202D00220BDE8F2
:10ABE000F08111F0007F28D0706A344628BB60687D
:10ABF000000300F1804000F5A020D0F81C1121F0E6
:10AC00000101C0F81C116068000300F1804000F5EC
:10AC1000A020D0F81C1121F01001C0F81C11D4F8AC
:10AC20002808254628B10121FEF7C6FF0020C5F8F7
:10AC30002808206820F000702060306820F08070C4
:10AC400030603846BDE8F081563412000A48016889
:10AC500041F080710160016811F0807FFBD00849EC
:10AC60000648086007490F20086048170649086031
:10AC70000749064808607047FCED00E055CEACC5BA
:10AC8000B00F00E0400E00E0000E00E011051500DE
:10AC9000800E00E002780021002A08BF7047491C9E
:10ACA000425C002AFBD1002908BF704710F801CB95
:10ACB0004FF060421368002BFCD082F800C0491EA0
:10ACC000F4D17047F8B5584A0D46DFF860C11178E5
:10ACD000574C4FF4707301F03F0105287CD2DFE838
:10ACE00000F0030D17558900D4F8200120F01F0053
:10ACF00040F019000090C4F8200191E0D4F8200140
:10AD000020F01F0040F018000090C4F8200187E0F8
:10AD1000506803EA8010084340EA0C000090C4F831
:10AD20002801D4F82C0120F0A20040F0820000900D
:10AD3000C4F82C01D4F82C0140F00100C4F82C0117
:10AD4000D4F82C0140F01000C4F82C01D4F82C01E8
:10AD500040F00800C4F82C010520FFF7E9F8D4F80A
:10AD60002C0120F01000C4F82C01002D58D02878B8
:10AD7000012855D1D4F82C0120F0090020F480706E
:10AD800040F480700090C4F82C0149E0506803EA58
:10AD90008010084340EA0C000090C4F82801D4F861
:10ADA0002C0120F0A20040F0A2000090C4F82C0179
:10ADB000D4F82C0140F00100C4F82C01D4F82C0187
:10ADC000009015B1287801280BD0009820F02800B9
:10ADD000009040F0080000E024E00090C4F82C014E
:10ADE0001EE0009820F0010020F48070009040F4F4
:10ADF0008070F0E7506803EA8010084340F4F830B0
:10AE000040F044700090C4F82801D4F82C0120F0E0
:10AE1000AB0020F4807040F082000090C4F82C0158
:10AE20000020F8BD0620F8BD1C010010008CFF0FAB
:10AE30000000024010B404004FF0000001EB020CCF
:10AE400012D0012C1EBF012010BC7047A1F59064E8
:10AE5000B4F5C07F05D2BCF5C06F98BFDFF840C025
:10AE60000BD910BC02207047B1F5007FF9D2BCF5B8
:10AE7000007F98BF4FF0844CF3D80CEB81014FF06A
:10AE8000000C002A9CBF10BC704700BF51F8044B57
:10AE90000CF1010C43F8044B6245F7D810BC704725
:10AEA000002000422DE9F0410026834F834D844C61
:10AEB000B046052880F0FC80DFE800F003D6E4F11E
:10AEC000F400A868B0F1FF3F0DD101227D4B40F2A4
:10AED000C4411046FFF7AEFF18B9A868B0F1FF3FB4
:10AEE00001D1C5F80880A868032837D2D4F87813B0
:10AEF00021F0F851C4F87813D4F8581321F4F8016C
:10AF0000C4F85813D4F8441321F0F85101F120612A
:10AF1000C4F84413D4F8441321F4F04101F5A041DE
:10AF2000C4F84413D4F8581321F4F85101F57061B2
:10AF3000C4F85813D4F8541341F4F011C4F854135E
:10AF4000D4F8601321F0F86101F17071C4F8601356
:10AF5000D4F8601341F4F011C4F86013D4F8481326
:10AF600021F0705101F12051C4F84813D4F848136E
:10AF700021F4F03101F5A031C4F84813D4F85C1382
:10AF800041F07071C4F85C13D4F85C1341F4F051D3
:10AF9000C4F85C13D4F8801341F00041C4F8801366
:10AFA000D4F8801341F08041C4F88013D4F87013B2
:10AFB000C1F30551E960D4F8701321F07C71C4F835
:10AFC00070134FF00701C4F83C130DD2D4F84013AE
:10AFD00021F07071C4F84013D4F8401321F4F861E3
:10AFE00001F14001C4F84013062808D30F20C4F82B
:10AFF0003C03D4F8B00120F01800C4F8B001D7F831
:10B00000000140F00100C7F80001D4F8780340F0D7
:10B010000040C4F87803206E40F400302066206EB3
:10B0200040F480202066206E40F400202066206ED0
:10B0300040F480302066206E20F010002066206EE4
:10B0400040F00E002066206E40F001002066206E69
:10B0500020F400702066206E40F4E0702066206EC0
:10B0600040F02000206624E01749D1E95201006831
:10B07000084018BF0120E0B1142000F047F9C0B12A
:10B08000BDE8F081D4F8240120F0FC008030C4F841
:10B0900024010120C4F820010BE003E0FFE7C7F81A
:10B0A000048006E000291CBF95ED0E0A81ED000A20
:10B0B00006263046BDE8F081001002405001001025
:10B0C000000002405801001030FB0300F8B5414E6B
:10B0D000B068414DC0F3005006F58276A8703F4835
:10B0E00000F086F83E4800F001FA4FF04027786CF7
:10B0F00040F47C0078640024F46334647464B464C1
:10B10000F46434657465B465F46534667466B46675
:10B11000F46634677467B467F467C6F88040C6F8AD
:10B1200084403048FEF7BEFD6420FEF701FF786CD6
:10B1300040F0400078642C48D0F87C1341F4FD01C5
:10B1400041F0B061C0F87C1328490A6822F47F42BC
:10B1500002F580620A606978C1B9D0F86C13C1F356
:10B1600005512961D0F8881001F03F016961D0F8DC
:10B170006C13890EA961D0F88810C1F38541E9618B
:10B18000406CC0F3C6102862012068702869A8626C
:10B1900068696C620122E8626B464FF49261104666
:10B1A000FFF748FE88B9009810F0060F04BF03208F
:10B1B00068620AD010F0020F08BF062007D010F016
:10B1C000040F0CBF09206C6201D00020F8BD68623A
:10B1D000FBE70000001002405001001024FB0300B8
:10B1E0002AFB030064F9030000000240440402400B
:10B1F00038B505460078434C20B101280AD0022812
:10B2000011D018E0606920F010006061606920F0E2
:10B2100020000FE0606940F010006061606920F07C
:10B220002000606107E0606940F0100060616069C3
:10B2300040F020006061A978606961F302006061FC
:10B240002979606961F3C30060610120009063693E
:10B250003F222D490520FEF7ADFE002818BF38BD5E
:10B26000A0696169C0F30010C1F30011884217D1D1
:10B27000A0696169C0F34010C1F3401188420FD149
:10B28000A069616900F0070001F00701884207D159
:10B29000A0696169C0F3C000C1F3C001884201D058
:10B2A000012038BD68780028E06914BF20F0100044
:10B2B00040F01000E06168790028E06914BF20F0D8
:10B2C000080040F00800E061E878002804BFE06969
:10B2D00040F0070013D0012808D003280BD007281E
:10B2E00004BFE06920F0070009D009E0E06920F020
:10B2F0000700801D03E0E06920F00700001DE06109
:10B30000002038BD0010024018100240222824BF3F
:10B31000062070472DE9F8434149024601EB001829
:10B320000025D8E90069D8E90274316811EA090FEB
:10B3300004BF0020BDE8F883142A23D139480068EF
:10B34000C0281FD101231A4637496420FEF706FEA4
:10B35000002818BFBDE8F88301231A46334964204A
:10B36000FEF7FCFD002818BFBDE8F88330480168EF
:10B3700041F0010101602F48416A00291CBF0020F3
:10B3800000F078FDFCF7D8FF0090306820EA090053
:10B3900030600098FCF7D4FF23461A463946052052
:10B3A0000095FEF707FE002808BFBDE8F883284691
:10B3B000D8F80C20D8F80010B2F5F07F29D00BDCBB
:10B3C0001E2A20D0FF2A18BFBDE8F8830A6812F0B1
:10B3D000FF0F15D1BDE8F883B2F5F05F0AD0B2F5E2
:10B3E000E03F18BFBDE8F8830A6812F4E03F07D1D8
:10B3F000BDE8F8830A6812F4F05F08BFBDE8F8837F
:10B400000968BDE8F8830A6812F01E0FF8D1BDE89C
:10B41000F8830A6812F4F07FF2D1BDE8F8830000E7
:10B4200030FB0300E00F0C407C0A0C40101F0C4066
:10B43000800A0C4050010010222824BF06207047CB
:10B440002DE9F8432649044601EB0410D0E90265D2
:10B45000D0E90089D8F8000010EA090F3CD1214F4B
:10B46000142C05D1796A00291CBF012000F002FDCF
:10B47000FCF762FF0090D8F8000040EA0900C8F825
:10B4800000000098FCF75CFF01202B4600901A4654
:10B4900031460520FEF78EFD5FEA00080AD0142C25
:10B4A00005D1796A00291CBF002000F0E3FC40466A
:10B4B000BDE8F883142C09D101231A460A496420F7
:10B4C000FEF74CFD002818BFBDE8F883306828421D
:10B4D00004BF0120BDE8F8830020BDE8F883000028
:10B4E00030FB030050010010101F0C4038B5274CF2
:10B4F00005460178606A61F30100606201200090F6
:10B50000636A032222490520FEF754FD002818BF74
:10B5100038BDA06A616A00F0030001F003018842AF
:10B520001CBF012038BD6978E06A61F38300E062E6
:10B53000A978E06A61F38710E062E978E06A61F374
:10B540000920E0622979E06A61F30510E062687918
:10B55000002804BFE06A40F003000ED0012808D0A4
:10B5600002280DD0032804BFE06A20F0030004D0B5
:10B5700004E0E06A20F00300801CE062002038BD97
:10B58000E06A20F00300401CF7E7000000100240D2
:10B59000281002400348016841F0100101600020BA
:10B5A000704700000048004014490022C1F80423FD
:10B5B00001234B60DFF848C0A0F56143634528BF15
:10B5C0001048114BB3FBF0F0401E80B2086102201E
:10B5D000C1F8F0000D4802600D48D0F8501221F07B
:10B5E0000E01091DC0F85012D0F8501241F00101AF
:10B5F000C0F850126420FEF79BBC0000000004E07D
:10B6000081A31D0040420F00006CDC02000F04E02B
:10B610000000024010B588B0002218A301920292E7
:10B62000039204920592D3E90023CDE906238DF815
:10B630001C100A0A8DF81D200A0C8DF81E20090E18
:10B640008DF81F1001A90091044602AB082206A93B
:10B65000FDF7D0FB00281CBF08B010BDE068B0F5B6
:10B66000877F3CBF4FF4FA6000F00CF802A8019904
:10B67000084410F8010C08B010BD00000175FC046E
:10B68000000000004FF47A714843FEF751BCFEF70A
:10B690004FBC00000FB470B5094C6068002804BFAF
:10B6A00070BC5DF814FB05AA0648049900F030F858
:10B6B0000546616803488847284670BC5DF814FB5E
:10B6C0004C00001000220010014948607047000043
:10B6D0004C00001038B50C4C06A1009160680028A1
:10B6E00008BF38BD01AA094800F012F86168074890
:10B6F000884738BD0A0A0A0A0A0A0A0A0A0A0A0A0E
:10B700000A0A0A0A0A0A00004C000010002200106F
:10B710002DE9F74F04460878002588B0002800F08E
:10B72000828300BFC0B24FF00609252810D05CB15B
:10B730000A2806D1FE48007818B10D2004F8010B44
:10B740006D1C087804F8010B491C6D1C00F067BBE8
:10B7500020200190002711F8010FBC46302801D1AC
:10B76000491C0190002691F800A00A460DF1080836
:10B7700030463346BAF12D0F02D101264A1C33461A
:10B7800092F800A0AAF1300ABAF1090F0FD800BF51
:10B7900000EB8000400012F801AB3038504492F8C2
:10B7A00000A05B1CAAF1300ABAF1090FF0D9B8F178
:10B7B000000F18BF0293002E18BF4042009002985D
:10B7C0000E183078732837D000990029BCBF494241
:10B7D00000912E2803D030786C282DD125E0721CE2
:10B7E000002311781646994618462D2902D10123C7
:10B7F000561C18463178303909290BD809EB8901D4
:10B80000490016F8019B303989443178401C3039A1
:10B810000929F3D9B8F1000F18BF0290002B18BF07
:10B82000C9F1000902981618D5E716F8010F6C281F
:10B8300004BF4FF0010C761C3078662800F02C8293
:10B840000ADC462800F0288258287DD0632814D0CE
:10B85000642800F0B7810BE0692800F0B3817328F9
:10B8600016D0752800F00E81782808BF012770D007
:10B87000002C18BF04F8010B07E00A98002C10F800
:10B88000041B0A9018BF04F8011B6D1C00F0C6BA17
:10B890000A99002251F8040B0A9140B10378411C27
:10B8A0002BB100BF11F8013B521C002BFAD10099BB
:10B8B000002920DD8A421ED2A1EB020C0021019F4B
:10B8C0002346BCF1000FC4BFACF1010CBCF1FF3F3B
:10B8D00009DD002B18BF03F8017B491CACF1010CFA
:10B8E000BCF1FF3FF5DC002C14BF0B4600231C44C9
:10B8F0000D4400210091017839B10CB104F8011B0D
:10B9000010F8011F6D1C0029F7D1009800281CBFFA
:10B910004042824280F08282821A0021019B2046AE
:10B92000002AC4BF521EB2F1FF3F08DD002818BF35
:10B9300000F8013B491C521EB2F1FF3FF6DC002C1F
:10B9400014BF0846002000E003E004440D4400F06A
:10B9500065BABCF1000F07D00A98C01D20F007029D
:10B96000F2E802010A9204E00A9951F8040B0A91E4
:10B970000021009A8AB30B46024650EA030C0CBF22
:10B980004FF0010C4FF0000C08D0120942EA03728C
:10B990001B090CF1010C52EA0308F6D1009A019B35
:10B9A000A2EB0C080022A446B8F1000FC4BFA8F116
:10B9B0000108B8F1FF3F0ADDBCF1000F18BF0CF819
:10B9C000013B521CA8F10108B8F1FF3FF4DC002C48
:10B9D00014BF134600231C441544A0464FF0000C2E
:10B9E00050EA010206D100BF4FF030028DF80C2062
:10B9F0004FF0010C18BF03AB17D000BF00F00F02CF
:10BA0000092A06D9002F14BF4FF027094FF0070964
:10BA10004A443032000903F80C2040EA0170090959
:10BA20000CF1010C50EA0102E8D1B8F1000F22D06C
:10BA3000ACF10103BCF100021ADD03A81844411C5B
:10BA4000A8F1010013F0010F03D111F8017D00F8F6
:10BA5000017F521009D000BF11F8017C477011F826
:10BA6000027D00F8027F521EF6D1E01800F10108B5
:10BA7000002088F80000002C18BF6444654400F0E2
:10BA8000CDB900BF0A98BCF1000F06D0C01D20F050
:10BA90000701F1E802E00A9103E050F804EB0A9094
:10BAA00000200390009800287ED0039970465EEA3B
:10BAB00001020EBF012300234FF0000C5ED0B1B392
:10BAC0004A084FEA90094FEA300749EA817817EBB4
:10BAD000080742EB91024FEA171949EA027818EB7E
:10BAE000070742EB12124FEA172949EA026818EBDE
:10BAF000070742EB12224FEA174949EA024818EBBE
:10BB0000070742EB1242BF1842EB0C02FF0847EA5C
:10BB100042774FF00A08A7FB08ABD20802FB08B82F
:10BB20004FF0000907FB0988B0EB0A0902E00EE0BC
:10BB30004C00001061EB080019F1060140F100080B
:10BB4000090941EA0870C01942EB181112E04108D6
:10BB500001EB900101EB111101EB112101EB1141FE
:10BB6000C9084A4202EB820200EB4200801D01EB51
:10BB7000101061465B1C50EA0102A0D100982146DA
:10BB8000C21A0020019B002AC4BF521EB2F1FF3F1F
:10BB900008DD002918BF01F8013B401C521EB2F11C
:10BBA000FF3FF6DC002C00E004E014BF014600215A
:10BBB0000C44054422467046039900F0B3FBDCBBFD
:10BBC00005442BE10A98BCF1000F06D0C01D20F0FF
:10BBD0000700F0E802870A9004E050F8048B0A900E
:10BBE0004FEAE877002FA8BF4FF0000906DA0020DF
:10BBF000D8F1000860EB07074FF001090098D8B3AF
:10BC00004046390003D50022404262EB070100F0B4
:10BC1000F1FA00990A1AB9F1000F08D00198521EE2
:10BC2000302804D114B12D2004F8010B6D1C002123
:10BC30002046019B002A00E02CE0C4BF521EB2F156
:10BC4000FF3F08DD002818BF00F8013B491C521EC9
:10BC5000B2F1FF3FF6DC002C14BF0846002004447C
:10BC60000D44B9F1000F0ED0019820280BD14CB132
:10BC70002D2004F8010B05E0FFE7B9F1000F02D019
:10BC8000002CF5D16D1C22464046394600F04AFB97
:10BC9000002C95D0044493E7002C7DD00A98C01D59
:10BCA00020F00700B0EC020B0A9051EC100B00F0F2
:10BCB00017FC00EE100A4FF0140A2746B5EEC00A32
:10BCC000C4F800A0F1EE10FA03D15D482060032013
:10BCD000A2E010EE101A4FF00008A346C1F3C750BF
:10BCE00021F07F427F3842F4000243461F287ADA6F
:10BCF00010F1170F78DB1728A4BF173802FA00F3EA
:10BD00000EDA0028BCBFC04322FA00F808DBC0F1FD
:10BD1000170342FA03F3401C02FA00F020F07F48B8
:10BD2000002903DA2D2038700BF10107002B04BF26
:10BD3000302007F8010B15D006DD3A4618464FEAC9
:10BD4000E37100F0EFFA07E02D2007F8010B5842ED
:10BD50003A46C11700F0E6FA387818B117F8010F23
:10BD60000028FBD12E207A1C3870B8F1000F3CD08F
:10BD7000A2EB0B00AAEB0000A0F1010CCC45C8BF60
:10BD8000CC46BCF1000F11DD174660465FF0300372
:10BD900008EB8801490000E040E003EB216807F868
:10BDA000018B21F07F48401EF2D1624408EB8800ED
:10BDB00041000520B0EB216F1FDC501EABEB0003F0
:10BDC0000121C3F1010CBCF1010FA8BF302714DB26
:10BDD00003782E2B0DD0392B08BF077009D0D9B2AC
:10BDE000491C017009E028E025E0302002F8010B31
:10BDF00003E0401E491C8C45EADA00201070B2EBCB
:10BE00000B0009D5B0F1FF3F15D010F1020F18BF9C
:10BE10000C4812D02060032005440444711C0878AB
:10BE200000287FF47FAC002C1CBF00202070284627
:10BE30000BB0BDE8F08F0248ECE70348EAE70000EA
:10BE4000302E30003F2E3F00232E230030B401233C
:10BE50005FF00304A2F1010C51F82C5040F82C5073
:10BE6000921E51F822C040F822C09B1CA342F1DB75
:10BE700030BC7047F8B5294F06460C46B87846EAFC
:10BE80000001304031EA000008BFF8BDFCF754FA69
:10BE90000090BE70B86A002E0CBF051B0519BD626C
:10BEA000002DB8BF002502DB3F2D88BF3F25002EA7
:10BEB000F86A14BF0444041BFC62002CB8BF0024C1
:10BEC00002DB3F2C88BF3F24154F7EB1D7F86C03AF
:10BED00065F31950C7F86C031420FEF729F8D7F85A
:10BEE000880064F30500C7F888000EE0D7F88800E2
:10BEF00064F30500C7F888001420FEF719F8D7F896
:10BF00006C0365F31950C7F86C030098FCF718FA36
:10BF1000BDE8F8401420FEF70BB8000050010010F7
:10BF20000000024070B50246D0F86408526800EB89
:10BF300040004000120302F1804404F5A024D4F82C
:10BF400000520022C4F8002211F4006F55D0D4F83A
:10BF5000182212F0020F19D0434BD4F81C2272B1F0
:10BF6000D4F800C1CCF3072CBCF1040F05D3C4F8FE
:10BF70000C31042A88BF121F01D9002AF0D1D4F84D
:10BF8000482202F00602042AF9D136E0D4F8482209
:10BF900012F0020F13D000BFD4F80021C2F3074201
:10BFA000042A07D3D4F80821D4F80021C2F30742A9
:10BFB000042AF7D2D4F8482212F0020FECD1D4F8B8
:10BFC000482202F00602042AF9D1D4F8002112F422
:10BFD0007F0F12D0D4F80021C2F30742042A07D3FE
:10BFE000D4F80821D4F80021C2F30742042AF7D27A
:10BFF000D4F8002112F47F0FECD111F4047F18BFA4
:10C00000D4F8886328D000BFD4F8481201F00601A4
:10C010000429F9D1D4F81C1121F01001C4F81C1125
:10C02000D4F8101121F00201C4F81011D4F88813CB
:10C0300041F00201C4F88813FDF77AFFC4F8886361
:10C04000D4F8100140F00200C4F81001D4F81C012B
:10C0500040F01000C4F81C014FF0FF30C4F8080293
:10C06000C4F8005270BD0000EFBEADDE10B582B066
:10C07000FCF776FDFCF738FDFFF72CFB1CA0FFF763
:10C0800009FB244800904FF4006001902248FCF71F
:10C09000F3FE224B69461A1F0420FCF707FF30B15C
:10C0A0001FA0FFF7F7FA02B04FF0FF3010BD244C8D
:10C0B00022492068FFF7AEFA002818BF21A002D05D
:10C0C000FFF7E8FAFEE72AA0FFF7E4FA69462068DE
:10C0D000FDF720F8002808BF31A0F1D00020206033
:10C0E000606039A0FFF7D6FA02B04FF0FF3010BD04
:10C0F000424C45204669726D7761726520557064C7
:10C10000617465204170706C69636174696F6E0A57
:10C11000000000008C010010080000100400001056
:10C12000424C4520436F6E74726F6C6C657220498F
:10C130006E6974204661696C73210A006A8793C531
:10C14000000000105772697465207369676E61742E
:10C1500075726520746F20424C4520436F6E747277
:10C160006F6C6C6572206661696C65640A00000022
:10C170002A2A2A2A2A526573657420636F6F7065B4
:10C180007220746F20646F206120666F7263696E25
:10C190006720757067726164652A2A2A2A2A0A0054
:10C1A000424C45204669726D776172652055706416
:10C1B000617465204170706C69636174696F6E2091
:10C1C000446F6E65210D0A00616D5F646576696379
:10C1D00065735F636F6F7065725F696E6974206607
:10C1E00061696C73206F6E207570646174650D0AEF
:10C1F000000000002DE9F00150EA01020EBF01230A
:10C2000000234FF0000C54D000293BD04C084FEADB
:10C2100090064FEA300246EA8176921944EB910487
:10C220004FEA121646EA0475AA1844EB14144FEAB2
:10C23000122646EA0465AA1844EB14254FEA124672
:10C2400046EA0544A41845EB1542A41842EB0C023B
:10C25000E40844EA42740A27A4FB0758D20802FB08
:10C260000787002604FB0676401B61EB0601851D4F
:10C2700041F100002D0945EA00710509081945EB57
:10C28000020112E0410801EB900101EB111101EBF9
:10C29000112101EB1141C9084A4202EB820200EB75
:10C2A0004200801D01EB101061465B1C50EA010248
:10C2B000AAD1BDE8F00118467047000010B588B05B
:10C2C00004460320ADF80C00049118201449ADF881
:10C2D0000E00A1F13400CB6AC268934224BF91F8EA
:10C2E000340010F0010F14BF079207938869401CB7
:10C2F0000690049800280CBF4FF0FF304FF40070F8
:10C300001421059002AA03A8FDF79AFC01200090D1
:10C31000182302AA00212046FCF7BEFC08B010BD7D
:10C32000C02100102DE9F00787B04FF0000C6646E1
:10C330006D4600293FD04F084FEA90034FEA300482
:10C3400043EA8173E41847EB91034FEA141848EA73
:10C35000037818EB040443EB13134FEA142848EA5C
:10C36000036818EB040443EB13234FEA144848EA2C
:10C37000034818EB040443EB1343E71843EB0604AC
:10C38000FF0847EA44730A27A3FB079AE40804FB63
:10C3900007A74FF0000803FB0878B0EB090761EB33
:10C3A0000801BF1D41F100013F0947EA0177FB1871
:10C3B00044EB111412E0430803EB900303EB131357
:10C3C00003EB132303EB1343DB085C4204EB84040D
:10C3D00000EB4401891D03EB1113344621460A2466
:10C3E000A3FB0447001B00F1300005F80C001846C1
:10C3F0000CF1010C0B439CD16046002A02BF07B030
:10C40000BDE8F0077047471EB0F1000C18DDE919D0
:10C410004B1C511E17F0010F03D113F8014D01F809
:10C42000014F5FEA6C0409D013F801CC81F801C018
:10C4300013F802CD01F802CF641EF5D1D1194A1CC0
:10C44000167007B0BDE8F007704700002DE9F0470F
:10C450000C468246D4E9010691F81480CF680D6934
:10C460009146052834D8C2004FF0FF300146FBF753
:10C4700077FF0A4600EA060102EA0700084327D1CF
:10C480004DB1B8F1000F04D0E06908B3B8F1010F65
:10C4900001D0A069E0B19AF80800012801D038B1B4
:10C4A00002E0B5F5805F13D2B9F1000F07D012E0BA
:10C4B0002068042898BFB5F5805FF5D308E094F8AC
:10C4C000240010F0E00F03D10449A06A084202D012
:10C4D0000620BDE8F0870020BDE8F087E0E0E0003E
:10C4E00021F00042A2F16052B2F5801F01F000433A
:10C4F00028BFD2F17F6C0BD95FEA001C43EAC2026D
:10C5000042EB507018BF704728BF20F00100704701
:10C51000B2F5801FBCBF184670474FEA410C1CF5AE
:10C52000001F02D2084600F05FB870B500F009F8AD
:10C5300000000089FFF7F6BF4FF00040A0F5800033
:10C5400070470EF1020E2EF0030E5EF8046B3642B9
:10C5500005D4012A43EB030515F5001F12D8012865
:10C5600041EB010C1CF5001F0CD80ED14FEAD17C19
:10C5700015F5001F0CEB4C0C0CF1020C08BF4CEB3A
:10C58000D37C04E04FF0080C01E04FEAD37C0CEBC5
:10C590004C0526FA05F606F00706B6F1040C06D29D
:10C5A0000EEB860CBDE870404CF0010C6047DFE8F4
:10C5B0000CF0090B02024FF000414FF00000A1F512
:10C5C000002170BD19461046012851EB010418BF27
:10C5D000D4F5001484BF002001F0004170BD4FF07D
:10C5E0004070E1EE100A7047FF2141EAD050C005CB
:10C5F0007047000000000000000000000000000084
:10C60000000000000000000000000000000000002A
:10C61000000000000000000000000000000000001A
:10C62000000000000000000000000000000000000A
:10C6300000000000000000000000000000000000FA
:10C640000000000030C60100F4C5010008C601006A
:10C650001CC6010004000610180006102C0006106D
:10C66000C032A23A00000000EADA8C4AE6D2364D27
:10C67000F0B4711730C36E530002140100000000C3
:10C680006A259738AAEDAEDFDDF8B0BA23A5B991D7
:10C69000FAD2B7E107194C17DEF3661FA64E9D7F4D
:10C6A000B61FF647AD3A06E998194ABA1B107F3B08
:10C6B0005CFA1DC66001A07793430D0AB406156CA1
:10C6C000F53DB49E839B863610FE1D9DF939365A82
:10C6D0005CC184911E08FB1F5575F5A7FEAA6CE28C
:10C6E000D13E95072FFC5457DFC4F9CB9E97344FAA
:10C6F00000F69E6327FC755BE732D415FEF04E5BB7
:10C7000056448846BADC62385E00D1A779D69AFFD3
:10C710009B768454321D45E2B3960A41A50C805D98
:10C72000EAE6416A6CCC6D34ADDCBFD1FE26BBECD1
:10C73000A0B36413DD558D803603921AD71C17C53C
:10C7400070D54458AE2AE2496A454819698C20B32D
:10C75000D0C7F008DF8DC62A2FDC46B69116FEA49E
:10C760007FEE6A56C54A71EC306D3F58727FC41136
:10C7700066AE4064FA71D9C37A1BC553B673B45B15
:10C78000A179B62612D8716462D713382BFBCE601C
:10C79000B8776A8CD38CA123FFC200FD0A82C0CA7D
:10C7A0008F5EA9BDA7FCF54C92AFD9CC8F5424293C
:10C7B00008E6B741790C115E4AA9208004558E1213
:10C7C000BB4A8DB641F409CE803BA70F447E184F7B
:10C7D00096AA7983CAE34FB9DCCD4645D1EE6744CA
:10C7E0005826A5C7E4B36561B9DD00C8936B6A86B6
:10C7F0007AD171F48F6ED257C4B2D6A4357578A6AB
:10C800000349960391C6EEBCC3CAF2EA8CD420C495
:10C810005C9EDD718E3F08184EA18908C904B4855D
:10C82000901EC1A8A16F74A450309777B718729862
:10C83000A6F1E1F812B850B8F61C9135E67863AF6E
:10C84000DEDBED8C03BDE9B15EAD47423F0DEC9EF2
:10C8500021FA5D14BCF831A64D94376B5DD1B56FEC
:10C860007A43C878137D9D45DABF0108E26BC23B6D
:10C87000A6557ED47B755F60881394B4791C523FB3
:10C880009AD7A7E924EE481054D55AEE75F53F2AF9
:10C89000596319FA4E5D1E6A6FCE2B532D2ECA0BAB
:10C8A0008723D87677A7CBD543E5626C684AF8C46E
:10C8B0000E9DC52B506DE569365CE08C4D79A03F2F
:10C8C000802AEA4B18A04FEA2BCC00742D93EF3D41
:10C8D000FB5A78B56765EBCA5098C76DBAE37A36EC
:10C8E000B34E3C7D6D3F875CA867F9E648FE72F762
:10C8F000440AFB51FBAE18AD0D214CD1777CC05AD8
:10C9000076890AA19FFC6D055503FE469A8801E7CA
:10C910001B68CD0FAD359AA72A913537BD57F71350
:10C92000B5765ABC3B3982FEF5E858E8C8493872FA
:10C93000DC646BA00AB217F1D05F9ED465174EAAD3
:10C94000C1C62095AA81045219789BE2F75F2FA4F3
:10C950006CA2DC7229C6428D0D594A763DFC5A44C0
:10C96000E2D1FBE3401C729FC44EE0D917EE365271
:10C97000A1606547EBCF18EAA696E902AA3A260B12
:10C980005A7A7AE84C69374D9BA6F0B960C19CA5EC
:10C990007A22329D2801D5FB9B7BAF164BA8F583ED
:10C9A0006A0CD5D835998A0EE1C6392F20E5822444
:10C9B000D128746F70953FB9CBB817D3BD660EDB25
:10C9C000E3F4018F73067455CF3046D1E8A1088C8B
:10C9D00078BC0D4238B4F6E107B6FDCD7C5B8736F6
:10C9E000CFFF0294055952BEE4206A490F7889347A
:10C9F0007758B8ECFCC0102C4D9531FB2380BCF56A
:10CA0000C6F68BAB44CA9268857BF1B11B6852C0F5
:10CA1000A863904AF6179E75C847B6EB3B1FD176C0
:10CA2000C3DCD2759C601BDE76FCD7A1D4EBB3AC23
:10CA3000EB0EA578F77AB42CFB3B189EE476B9147C
:10CA40001CB61818AE34CC279AD9066E77C12AF8CE
:10CA5000CA310F0D1881CAAF048F5BA62DA9AC7423
:10CA6000416562B55FE48DC583E14D4C313B58466D
:10CA70002EDFC0AFE45EE902E601ACD4DD75AF4C59
:10CA8000C9E74644AB5FD70F8907205965CF379672
:10CA9000E530012B081094392B4637E6150C35721A
:10CAA00097E6F6E83C8A601DF80AB41A4EAB50715E
:10CAB00072C80700547E46C2C96EBD3A8114F2E3C3
:10CAC0003AA53786CB954BFB7E1B0A549DCFC0FA07
:10CAD000E8F128DE4CE99610AEA0690F3C52CE0278
:10CAE000134BFFEDF17A84A92B75AE809514C0A18C
:10CAF0001CD745E0FD06BBBD99C5BA571E791AF390
:10CB00006DB1AECC9F533B43230155B7A87AC7E71D
:10CB10005541D0534D02C5AFEB35E08BFA3F09C408
:10CB20003E640DDB69052A237442DBDF54E0CC7DD3
:10CB300069791A812574F5BBDAEAEB564ED7B775D9
:10CB40000029012509365C669184B184349E7BDB23
:10CB5000C89BFDE39307A4830D21535BCA419E2725
:10CB600087B107D1BC23998476AADBF12D6A628A4A
:10CB700099779E575C00CA3D6CD79A2253EDAC3C26
:10CB8000AEC5D20455BFF12FD82F930062DC851FAC
:10CB9000F698B3411E855822E321FF20593451EE07
:10CBA000533EFBD93685347C9D0AEC92FE0ACA942A
:10CBB00047E28303C265426010AA310C5DBC523368
:10CBC0006F35581E123E55E536C5638B78C970EC3B
:10CBD000593F972A1AA6810DD82282A708C4BE7E83
:10CBE0005A8D116FF06EEED388553EF07E83F816A5
:10CBF000E0FEC6BA1CF5DFA29A805AAE41C4B55514
:10CC00002B53F41DF5D385DCC7E4B1CA8B757724AB
:10CC1000EE0FF79626C4436A988C1B9FA48CE5827E
:10CC200069C28AD0D473BC3C2098D884E2919544E0
:10CC30007A98A7312D4143D47BAC9ECF4ED27273EC
:10CC4000F1A6DB2C7300F034E7FF3FAE71300CBD72
:10CC5000936DFF28CD997EC55227366656ACD38A90
:10CC60006E46FB219CC449F605BDAA27E5C7B06FF7
:10CC7000D4DEB9412860743B16DACA0DBEA85D57F0
:10CC800070B7D03D1AB4800C71743DD37311412834
:10CC90002D26D313310CF56FFA1690A297F332F7C5
:10CCA000D607212B45ADDBDC8FBC9E3C5B13B988DE
:10CCB00090131F986A15ECC8D01CC9DC9183D8B2B8
:10CCC000934B3D9E88166F46506CB32CAD604C78EC
:10CCD0005325604B222F9CDE5916FC5C9F6B0A2B60
:10CCE0001A0C75F20674918938DA9509BED0DA14F7
:10CCF000CBD0F66F0DE7B91F7D40DFC32A60FC8DF6
:10CD000061CD7372F8517BCE3B2CEF5B14F59178BB
:10CD10003560D61C00B1501FCBC16CE4F45FC9BFB5
:10CD20001C151AD0ABC41E8425366BB9781B09B705
:10CD3000BBC6B606311A5FC810120BF0C7A2C2718B
:10CD40009CE864A8F6107165F267EC7E546B1AF0EB
:10CD5000F031D40C0E22BB02A9275ECB2F7F5CDC06
:10CD600009022FCBF5989AA3DA5C028E1881EE297E
:10CD70000BA9A2128BB8BF899B8DF5D859CF184942
:10CD80006BE0D486149F107E78ACE286DA08910CB2
:10CD90002F78CD03927C84F4B2C2CD2F4D1AD3A844
:10CDA00029EF18C09CCC793C5D5C8440BEAA303928
:10CDB000C3BC5FD89FCCDF81663E668D029205BF03
:10CDC000450E49CB6EB4C1807632B785DFFCC48A8C
:10CDD000DEC6549AE01682CC64E677D64A44919037
:10CDE000BB68DE6E31705CD019E279CFBE964652D8
:10CDF0004E9B3CC8F5FB9B099BC0E08B33678F6F54
:10CE0000818FC6015BE0B6EDA08399B8EB2265D7B0
:10CE10008280B56175B83C2D8A721F2F1A2B286845
:10CE20000FCA0497A74F5298F77E81F7ACDB69BD14
:10CE3000FB3614482FF7F9E96FD2C1C8196EB481D7
:10CE40001E246153CCB1D212B5B16C38B4CBBA8DBB
:10CE50006DF0279AB1D50419B9BFD2E7287253DC17
:10CE60003EF49234663069FC1010CCE057A99A1455
:10CE70000AF90B7DB45BCD246DC161D90E518124BB
:10CE8000C78853C8A79963EE0DEBE5EEA968EA8F52
:10CE9000422B649D94688C46ABBA88776EA4246755
:10CEA000DD93CADF7E7FEB5A09BE65EF09DD86EAB6
:10CEB0007443E94E1F20BB331FE60D09085D38CDD2
:10CEC0006EF6CD122BF4DC59D0DEEE08D2EBC0F5B5
:10CED000A6E03B6B8AE4973C2A07645CF3C395CADF
:10CEE0006712FEDD0751379BDE384D0265A8704E94
:10CEF000B3894EA7B6CE0FB4216FEF1B5BC32DC015
:10CF0000646C18A501F77508C772B08289DB814A85
:10CF10006E7161008F9E12F22A7AC6E0FC9151A9CF
:10CF2000204869F9B852858C4A02E3446BB88D6693
:10CF3000A8870E59D3C540A6D9C09196A8AC1F2981
:10CF4000865C9855780582E767EEA1EC4683EFE7AB
:10CF5000838F68414E21794E46643EB42F773D520F
:10CF60007A7D5B01B17D464BE5B713DA484E98CA2E
:10CF700037F2B0D1E23BD5101247656975A5D55E91
:10CF8000679089DC95881836174A18A5566C523573
:10CF90000CAB5FED31AA25D9AF8D2545E0AAE81489
:10CFA0007BAD1BE92E35FD844634EC9C6F7B5BD05A
:10CFB00097218E1CEC8E7D01CDC7DC63B33B3CCD4D
:10CFC0001C3AF8D61B6B29DF343607EACC301B7DC0
:10CFD000674602EE147144C959C71A49C67601283A
:10CFE000E3FE5BC9ABD6985E41D654F6B19CD265E0
:10CFF0006F6063C572766360F6D322AFCF480411C9
:10D0000010B0D319EA1CD4FAC00AB440A7D73E34F2
:10D01000F6CF36262BEACC3BDF60E77604110A70A8
:10D0200057D9E6210BCE647FB1CD044A3915365D60
:10D030009DD539A14434ED11E9571C7CC7EFCF1EB3
:10D04000E497976A432CDD9441996031FCDFA03866
:10D0500019E17E69668E04E266C59080FB3BFC06A2
:10D06000D9D86A09A10BAB722C10E084B50AFEABCB
:10D07000BE9E89A23CF920A2438F20F862D7A5A2C8
:10D08000CD6D4C765A01145536768C68FC80E36879
:10D090001CDB40883AC6BB1723BB342229BD042CB5
:10D0A000019DC36CC65CE1238D95079D069395A6F3
:10D0B0006A3920B2ABE20B95A2657FF40F46B0D57A
:10D0C0007B2DF6FE286B69BC18E8F8A5E3D7086B42
:10D0D000AAD8A8A8DA5AF75665F8392CDF27907035
:10D0E0004174A6DF2C0FA428AFF4CEBF88743E484D
:10D0F000FDEF1AB34497BB06F9CC3CE877B6376C22
:10D10000C340D27DF94228DD400BF3F27ABA50A237
:10D11000A3F4E9414543BAA9A18789769D2EA9E7E1
:10D1200098814D9087AE224A7545B6037B15228EB5
:10D13000EAFD5456A60C7E32E17C27EA4B6018F3D8
:10D1400005C11286FE39BC51823A7295DD76D7F65A
:10D150003D430FA586AD63CE31162BAC47AF1E8283
:10D160004B7A9CA02F05E0E48AC1CE250B97AD4CED
:10D17000821296107DDA9D54AC31AF0A64B106F884
:10D180002890E5C97E323A74DC975511BB17945547
:10D190009F907BADDA644B135938233EEC4E0B3530
:10D1A000828C751CF581AF579CFC951F0BC1D2CAB0
:10D1B000E4A0310DE9A793D27318DA6A1FDB344279
:10D1C000460DEE42C6121B9FCA4A4BE663892FE703
:10D1D000569233C33B4887B7DC9FE34477D378B09C
:10D1E00029A3F37BFD2F2411872C5B2A8EBC6BF7C0
:10D1F000488821359B469E0BCC8F55A5463298A773
:10D2000080A5DB065CA0C0D38F5D3690AEC8999731
:10D21000F998DD492EAFB1362224547EC534AB2BAC
:10D22000555B9CBE6F2CC7A09CD052DA4D6A7A48E1
:10D23000658403AC3CFEA6DDB5B99C4909B2F8147F
:10D24000A2E354163C71133A60E59A49F6F72D6B48
:10D25000ED3DD2AB74290909E57BA661AF7C6EAFC9
:10D26000F34F65C7C1814A7850EDE2A9164045E306
:10D27000BEE90EB71A19B55EFF26385CAE11170865
:10D28000780BA01488ABE640A3B2E615714A98D299
:10D290004DB4DBD03CF3770CAEDC6AEB967A9A089F
:10D2A000EAB410622A267E0F4DA443729FC8DB7E2B
:10D2B0007F15ED1B6D5BEA4A7CB93810378E8F1EE7
:10D2C000C270DB27B00D25F72BDBEC7773A8724B10
:10D2D00047B37ED4B81E83ED8D078D0131809993BD
:10D2E000C5C8AC37F69184D3EBF4C150E9055B6354
:10D2F0006033266DAA65B1254A9932B971880FD27B
:10D30000E5C19B95C162813C41B2CBEA12F11F207D
:10D31000748E7B0FE8C27731DBC59B6C968D33ED45
:10D320006AFBB80F73923DC63AC887D9D6FDD006BE
:10D330009D8C19AAA1A24BE88E80477297CFC22D6F
:10D3400017EF5A3C073ABBF2654E5A3DE0B6E64449
:10D35000F33C6DFEF2F4D9DECEF7809192DDD18EF2
:10D36000E78C8A6F47537BEDC3688AAB0040882304
:10D37000DF6172A683B96C7376FA8E8E3A49EA74CD
:10D38000CACD53AB3579C1514A98794DF83E81E603
:10D3900015989951F59F6D1B15AF50071C1486B257
:10D3A00089E46CF02921242FB0ACF3B3F44AA7D858
:10D3B0009E89D03150CEDE376D272D4D0F38D4B930
:10D3C00012FBD1004DEC875A7B6DB0A1E3A3CA2CB0
:10D3D000B36CACF2D57A4DA6812F9DA5850BF7D7FE
:10D3E0003731CC09F778FF8542C5409BF36D85172F
:10D3F0004A2DEAA5EF66AF49BE642189A407F20E63
:10D400008F1CA740051BD6C3A36FAD5D1F3E74865E
:10D410006AFB587E396190F4B21B5996587AB72846
:10D42000B5E075E4BC4FB2A9E6939044D8B47596C4
:10D4300082B6F9D0A4EEF91D72DF631CE0C0DFFEF6
:10D4400073EE64285F0EA306DB7DE3AB9C2BC7BDA8
:10D450000459FA4B2026824B0C7D17641A9BFE144C
:10D460001907933D12552E1EE4EB1E99684FD4B157
:10D47000D0FBCDFDD9974EBAF0FB59BBA05976131E
:10D4800090D9AB10BF68D88B029B5E420950FA9EC0
:10D4900062D63E6BD73637C8E260590ED0C6A75F5A
:10D4A0008C9DB5358B65ADA5590628524C09CC9994
:10D4B000D825991B397F3AF676DFE5A084EB37E073
:10D4C00075F8CE9F6D4A86F4C0CBFCBB1AE4DB171F
:10D4D0006A73C332D6BAEADD55E3F9CBAF3279E0ED
:10D4E000BDC46E12C31B841031EECB23E98AB6BBD8
:10D4F000AA3B326E121148E25537F7BBC1432ED614
:10D500006FBB0CA8D4D6CC87A564630AA963440773
:10D51000AD4ABF81D4B990DAA6D77D73D826043D31
:10D520006EF90AB374FDF36BC8A55441F27D64C46F
:10D530004EDD52CADA2D3632B63B7F2EA455C1B32A
:10D54000D64AFA33FBBA50D2250A0D69348A5A7585
:10D55000EF3930A2CF9675926719068F0BCBE2F2A6
:10D5600060375E92611473283D1017DCAE4419A930
:10D57000432E0FDD998325991989F2E564AE10FFDA
:10D580000585311A208678BA94FCE7F3A83398947D
:10D59000D6526A1E98FFE9953802C44C4BD346BC5C
:10D5A000FE880327AA403210EA0270E435BA4C32F2
:10D5B000100F721C6345F974B059F8B5C8BAA6C10A
:10D5C000552F4D420134D8AEEC6AEE610F7AEFA3CD
:10D5D000DD0956B3FCD140F8A941A85C97E12A5D6A
:10D5E000423DC21018CCCBF296169FA6237D1D7E1D
:10D5F00049A4EBE4C1D850817E1BF6AA263DDF3951
:10D60000E2AC956544F903915C170AFFBFB49C46F0
:10D610005F09B7B3846E07A2044495F8538C26487B
:10D62000320A2D6DCAC0A8CB19F2319EA8076989AC
:10D6300040B3C7D68B03AFAA6A4D05FC3C60C23825
:10D6400009935C809A67DEC897ED869E9BD1520154
:10D65000F3D0F5F3B44AF4C5AA354D0594AD316E57
:10D6600027D653A320AF49640072C365772AEF879A
:10D670001EF1A25EEE721005466D42D83DF38ABFE0
:10D680008908390EC68B455C71FE66FAF303AA89D8
:10D69000E1E10955A0F4F9C926AEC12FE69C1C6250
:10D6A000A6D6F4E16D6A66E0F4D0EBD456BCA3CE06
:10D6B000B120A5D54C6E90D5A1BB7151A43DC3A29C
:10D6C000A00277D9B333F283088F7488341C7AC7E9
:10D6D0007191F591BD67F34E535C82906DD186993F
:10D6E0004027B31A6D34E2F533802E69B7C30C9727
:10D6F000609F24A6B0251810AE57804042435AB60A
:10D70000FED85337C71E698F041F706D3F6D72CBF3
:10D71000EA48A0DCF879698D1021FE011AC1F1D91F
:10D720001F77B742A0C315BBBFF7E3D04BBA38127F
:10D73000EFDBC4F04E345CB6D5AE5CD59BEEB736AD
:10D740007619186DFB17E122997D6FF7FB2D841D6B
:10D75000817819AB917F2224BC3898C1084C6B307A
:10D76000E5575871BBD038209179A73CC49C60B371
:10D77000FFD9669B843B2E4A1EF66AB672F5FB986B
:10D780006450ABFAD26383D6D6ACF084E7864EA35E
:10D79000D31C748C2426BF31A85346A0F48E6F434B
:10D7A000C7CB5EB2BF3335DEB714057E1C51EA62CB
:10D7B000F2F52EB67DE7B755C22C5C72B70788C06C
:10D7C00026642ED52F9C8B49C6300A3DEE2F5884F7
:10D7D000E377E87A71FFD08D833F629D7110356EDB
:10D7E0007C3A0B1AD8C60FC3A2276C597852D8AA14
:10D7F00044C944205EB6BC45DF273A9640ADE9BB3C
:10D8000026D58B4DA4887C933500EB81B4291CB7B9
:10D81000D394E645536C7AC921F6C831D06518DB3C
:10D82000D804C5CFC82D7456B067A940FA48AD6377
:10D83000819BF9E7FFBCF8AE5A9F38F3AEA4523E85
:10D84000FC9F0D1E6F77A3E1EFF561212C6468103A
:10D8500074FB48F961674FAAEA8057D3FDF7211E90
:10D86000C790F9C56B7C2F3898841A5F6E79FBECF2
:10D87000CBF6EA02BDAC70949C8FFE535BF9F93F86
:10D88000054CE2E965E25BB8D3AD36631D6D3D85BD
:10D890002668C3F1BEF1BF6DA491FEF3428CC77C34
:10D8A000F8C371932BA5F7C2ECA0E779ACC71F5161
:10D8B00047418F307880EB040409F7223DFB479203
:10D8C00050D9B5F4E3CC6E3EC8FC79B1AF7493D0B7
:10D8D00019E0CFE1C8CA8041311B2936BE891B93AC
:10D8E0002AC970B14444906DD88FCEF7D36A7F1E99
:10D8F000E7D356EAE8FE21E09575A190947951931B
:10D900002F9E17EACAA282F86BA91857F3EC7DEA9A
:10D91000D92D6C118E494845A7D5A97FCFB9B24AF8
:10D92000A1DA85C6FC44BCB910A822201DE21A1C4D
:10D93000D28FDC5BAA5C90A7D7F1520DDDF79C1962
:10D9400073A23B67ABEBF8070B170D2D7D33B3B616
:10D95000DD8F538C9EC2DE78B4685A94CDB9A7B1DE
:10D9600042B6CAC6507FDB91F053FD999FCBAEE122
:10D970006C62DB68AA99F294680FCB1DC53EFFFF6D
:10D980000BD13638626FB7CEA064E8B8A26B0AAE8E
:10D990009E1B874F98DAB16BAA2D0F5CCBCF948B6F
:10D9A0001C8EE0FB43EF0DF69872AC2FC494F8DBAD
:10D9B000349CD2248BB455703B233C50B0AFFB2B2E
:10D9C0000FB49A7E3F9DA9E33C0A54CA97993C7BC9
:10D9D000955800A55153FECB0FD4C3C9BA50A0939C
:10D9E000665928D79FCE00132287443BE5641EF07A
:10D9F00013E5954B1D093E4303E1519A2049FCACC8
:10DA0000A4F80BEEF8D78C47F387C2BD0000733043
:10DA1000E470C0B8E0F2A0E5F2CD84F946FE3BDF49
:10DA200056900397C34D1F680D64A9281E2CA3FBB5
:10DA3000EB7DA5F8445182B5A1FCECAA7198E1EB0D
:10DA400094B84BC303A29FD5A7763CF41CB956B734
:10DA5000DB4A19CF719841BF46C3D5411761503198
:10DA6000FDDDC0C04700B92AF3DAE3CFF3B80D19E2
:10DA7000CA0843102BF569ACBA946F87AA0B624FA2
:10DA800045DEEE6D6454722119BF085C763598E668
:10DA90006E56009BC44108171A043AC03F2EB2FBD1
:10DAA0002DFF2C943AFFEEA1266892F4EB0A7FD565
:10DAB0007F50F3F98DEAF9A7E5E02C6CD6CEB8CA11
:10DAC000DAAFA9F3D915B20C75E4127DE36BC62C5D
:10DAD0008035ACFC9763803FB2562102DDE15934BA
